:020000040800F2
:100000007806002089010008550300084D03000808
:100010005103000831020008E70800080000000052
:10002000000000000000000000000000490500087A
:100030003502000800000000310400083506000801
:10004000A3010008A3010008A3010008A301000800
:10005000A3010008A3010008A3010008A3010008F0
:10006000A3010008A3010008A3010008A3010008E0
:10007000A3010008A3010008A3010008A3010008D0
:10008000A3010008A3010008A3010008A3010008C0
:10009000A3010008A3010008A3010008A3010008B0
:1000A000A3010008A3010008A3010008A3010008A0
:1000B000A3010008A3010008A3010008A301000890
:1000C000A3010008A3010008A3010008A301000880
:1000D000A301000899060008D5060008A30100083E
:1000E000A3010008A3010008A301000800F002F822
:1000F00000F03AF80AA090E8000C82448344AAF188
:100100000107DA4501D100F02FF8AFF2090EBAE885
:100110000F0013F0010F18BFFB1A43F0010318473B
:10012000DC080000FC080000103A24BF78C878C141
:10013000FAD8520724BF30C830C144BF04680C60ED
:10014000704700000023002400250026103A28BF35
:1001500078C1FBD8520728BF30C148BF0B60704739
:100160001FB51FBD10B510BD00F033F81146FFF7E5
:10017000F7FF00F0BDFB00F051F803B4FFF7F2FF0A
:1001800003BC00F0B2FB0000094880470948004763
:10019000FEE7FEE7FEE7FEE7FEE7FEE7FEE7FEE737
:1001A000FEE7FEE704480549054A064B7047000094
:1001B00039060008ED0000087800002078060020CD
:1001C000780200207802002070477047704770471F
:1001D0007047754600F028F8AE460500694653465C
:1001E00020F00700854618B020B5FFF7DBFFBDE81B
:1001F00020404FF000064FF000074FF000084FF08E
:10020000000B21F00701AC46ACE8C009ACE8C0091E
:10021000ACE8C009ACE8C0098D4670470446AFF3AE
:1002200000802046FFF7A9FF004870471400002017
:1002300000BFFEE770472DE9F04102460025002689
:10024000002000230024002791F803C00CF00F05C4
:1002500091F803C00CF0100CBCF1000F03D091F822
:1002600002C04CEA050591F800C0BCF1000F31D086
:10027000146800202BE04FF0010C0CFA00F3B1F8E9
:1002800000C00CEA03069E4220D183004FF00F0C01
:100290000CFA03F7BC4305FA03FC4CEA040491F89A
:1002A00003C0BCF1280F06D14FF0010C0CFA00FC82
:1002B000C2F814C00AE091F803C0BCF1480F05D1A0
:1002C0004FF0010C0CFA00FCC2F810C0401C0828CA
:1002D000D1D31460B1F800C0BCF1FF0F34DD546815
:1002E00000202EE000F1080C4FF0010808FA0CF392
:1002F000B1F800C00CEA03069E4221D183004FF002
:100300000F0C0CFA03F7BC4305FA03FC4CEA040497
:1003100091F803C0BCF1280F05D100F1080C08FAD0
:100320000CF8C2F8148091F803C0BCF1480F07D153
:1003300000F1080C4FF0010808FA0CF8C2F8108020
:10034000401C0828CED35460BDE8F08100BFFEE712
:1003500000BFFEE7704708B54FF4E06000F05EF8BC
:1003600025208DF8000000208DF8010002208DF876
:10037000020001208DF80300684600F017F808BD60
:1003800008B54FF4E06000F049F826208DF8000031
:1003900000208DF8010002208DF8020001208DF868
:1003A0000300684600F002F808BD000070B50021A7
:1003B00000230F22C47804B3154C246804F4E064CD
:1003C000C4F5E064210AC1F10403CA40447804FA88
:1003D00003F184781440214309010E4C0678A1559D
:1003E000047804F01F050124AC4005786D11AD00C0
:1003F00005F1E025C5F8004109E0047804F01F0587
:100400000124AC40044D0678761145F8264070BDB5
:100410000CED00E000E400E080E100E0024901436F
:10042000024A1160704700000000FA050CED00E080
:100430007047000029B1064AD2690243044BDA61D1
:1004400004E0034AD2698243014BDA61704700003D
:100450000010024029B1064A92690243044B9A6196
:1004600004E0034A92698243014B9A61704700009D
:100470000010024030B500210022002400232D4D41
:100480006D6805F00C0121B1042905D0082923D19C
:1004900005E0294D056022E0274D05601FE0254D50
:1004A0006D6805F47012234D6D6805F480340225E3
:1004B00005EB92421CB9214D554305600BE01D4DE3
:1004C0006D6805F400351DB11C4D5543056002E013
:1004D000194D5543056002E0174D056000BF00BF90
:1004E000144D6D6805F0F0010909154D6B5C056848
:1004F000DD4045600F4D6D6805F4E061090A104D5F
:100500006B5C4568DD4085600A4D6D6805F460519F
:10051000C90A0B4D6B5C4568DD40C560054D6D68D3
:1005200005F44041890B074D6B5CC568B5FBF3F5DD
:10053000056130BD0010024000127A0000093D0044
:100540000000002010000020704710B500F002F8F5
:1005500010BD00000CB500200190009033480068E9
:1005600040F480303149086000BF3048006800F432
:10057000003000900198401C0190009818B9019833
:10058000B0F5A06FF1D12948006800F4003010B137
:100590000120009001E0002000900098012843D144
:1005A0002348006840F010002149086008460068B0
:1005B00020F0030008600846006840F00200086070
:1005C0001A4840681949486008464068486008462B
:1005D000406840F4806048600846406820F47C1021
:1005E00048600846406840F4E810486008460068E3
:1005F00040F08070086000BF0C48006800F0007098
:100600000028F9D00948406820F0030007494860F5
:100610000846406840F00200486000BF0348406858
:1006200000F00C000828F9D10CBD000000100240B9
:10063000002002407047000010B51348006840F0E9
:1006400001001149086008464068104908400E49F9
:100650004860084600680E4908400B490860084693
:10066000006820F4802008600846406820F4FE00FE
:1006700048604FF41F008860FFF767FF4FF000608D
:100680000449086010BD0000001002400000FFF89F
:10069000FFFFF6FE08ED00E010B540F225510B48D3
:1006A00000F051F860B140F22551084800F030F8F0
:1006B000064800F003F904462146054800F003F916
:1006C0004FF45871014800F023F810BD0038014084
:1006D0000044004010B540F225510B4800F033F8BB
:1006E00060B140F22551084800F012F8064800F0C9
:1006F000E5F804462146054800F0E5F84FF4587146
:10070000014800F005F810BD0044004000380140E9
:1007100010B50022002340F66A14A14200D100BFA8
:100720000A1201249440A3B2DC43048010BD21B11D
:10073000828942F40052828104E082894DF6FF737F
:100740001A408281704770B50246002400230025BC
:10075000002040F66A16B14200D100BFC1F3421535
:1007600001F01F03012606FA03F3012D02D1968939
:10077000334006E0022D02D1168A334001E0968A0A
:1007800033400C12012606FA04F41688344013B1E3
:100790000CB1012000E0002070BDF0B5034600243C
:1007A00000260025002040F66A17B94200D100BF9C
:1007B0001846C1F3421401F01F06012707FA06F597
:1007C000012C01D10C3004E0022C01D1103000E0EA
:1007D00014301AB107682F43076002E00768AF437F
:1007E0000760F0BD2DE9F04786B005460E460024AF
:1007F000A24600BFA1460027B08900B100BF2F4626
:100800002C8A4CF6FF700440F08804432C82AC899B
:100810004EF6F3100440B0883189084371890843CB
:100820000443AC81AC8A4FF6FF400440B0890443D6
:10083000AC8201A8FFF71EFE1F48874202D1DDF8F7
:1008400010A001E0DDF80CA0A88900F4004040B140
:100850000AEBCA0000EB0A1031684900B0FBF1F85E
:1008600007E00AEBCA0000EB0A1031688900B0FB10
:10087000F1F86420B8FBF0F004012009642101FBC9
:100880001089A88900F4004040B1322000EBC90073
:10089000B0FBF1F000F00700044308E0322000EB69
:1008A00009106421B0FBF1F000F00F0004432C812B
:1008B00006B0BDE8F0870000003801400146888896
:1008C000C0F308007047C1F30802828070474FF4FC
:1008D0001651016000218180C18001810C2141817C
:1008E00000218181704700BFFEE7014600BF7047CD
:1008F00000F004F800F042F800BFFEE700B585B054
:10090000012144F20500FFF7A5FD4FF40070ADF89A
:10091000100018208DF8130003208DF8120004A990
:100920001448FFF788FC4FF48060ADF810000420F5
:100930008DF8130003208DF8120004A90D48FFF76D
:100940007AFC6846FFF7C3FF4FF4E1300090694638
:100950000948FFF747FF01210748FFF7E8FE01229A
:1009600040F225510448FFF718FFFFF7F4FC05B0EB
:1009700000BD0000000801400038014000B585B00E
:1009800001210520FFF766FD01214804FFF752FD14
:100990000420ADF8100018208DF8130003208DF806
:1009A000120004A91348FFF746FC0820ADF8100018
:1009B00004208DF8130003208DF8120004A90D48BF
:1009C000FFF739FC6846FFF782FF4FF4E1300090F3
:1009D00069460948FFF706FF01210748FFF7A7FE10
:1009E000012240F225510448FFF7D7FEFFF7C8FC6B
:1009F00005B000BD00080140004400401C0A00088A
:100A0000000000201400000028010008300A00083F
:100A100014000020640600004401000800000000EB
:100A20000102030401020304060708090204060880
:04000005080000ED02
:00000001FF
