:020000040800F2
:100000006804002001010008031300080B12000817
:1000100001130008D5070008311500080000000092
:100020000000000000000000000000005D13000858
:10003000D70700080000000005130008851300081A
:100040001B0100081B0100081B0100081B01000820
:100050001B0100081B0100081B0100081B01000810
:100060001B0100081B0100081B0100081B01000800
:100070001B0100081B0100081B0100081B010008F0
:100080001B0100081B0100081B0100081B010008E0
:100090001B0100081B0100081B0100081B010008D0
:1000A0001B0100081B0100081B0100081B010008C0
:1000B0001B0100081B0100081B0100081B010008B0
:1000C0001B0100081B0100081B0100081B010008A0
:1000D0001B0100081B0100081B0100081B01000890
:1000E0001B0100081B0100081B010008DFF80CD0F1
:1000F00000F05EFB004800479925000868040020D6
:100100000648804706480047FEE7FEE7FEE7FEE7B1
:10011000FEE7FEE7FEE7FEE7FEE7FEE7CD13000899
:10012000ED000008202A04DB203A21FA02F0002129
:10013000704721FA02F3D040C2F1200291400843F7
:1001400019467047D2B201E000F8012B491EFBD2DC
:1001500070470022F6E710B513460A4604461946D2
:10016000FFF7F0FF204610BD2DE9FE4F804681EAE3
:100170000300C00F0C46009021F0004123F0004521
:10018000B8EB0200A94105D24046214690461C46E4
:100190000B46024623F00040104347D0270DC7F31B
:1001A0000A00C3F30A510290401A019040286BDA0A
:1001B000C3F3130040F4801B0098924620B1002343
:1001C000D2EB030A63EB0B0B01985946C0F14002D6
:1001D000504600F055F906460D4650465946019ADC
:1001E00000F05DF910EB08006141002487EA11522C
:1001F00084EAE7731A4340D0009A62B3019A012A55
:100200004FEA075215DC001B61EB02014FF0004280
:1002100002EA0752CDE90042001C41F58011324646
:100220002B4600F094F903B0BDE8F08F404621461C
:10023000F9E7001B61EB0201001C41F58013001877
:100240005B412018A2F5001747EB030140EAD57087
:10025000B6196D4111E06D084FEA360645EAC075E2
:100260004FEA0752001B61EB0201001C41F58011AF
:1002700049084FEA30000019514132462B4603B07D
:10028000BDE8F04F00F054B900980122400000236F
:10029000D0EB020263EBE073009821464FEAE07472
:1002A000B8EB000061EB0401E9E783F000435BE792
:1002B00081F0004158E72DE9F04D81EA030404F094
:1002C000004B21F0004514464FF0000A23F0004196
:1002D00050EA050220D054EA01021DD0C5F30A57A6
:1002E0000246C5F31303C1F31300C1F30A5640F4E9
:1002F000801543F48013A7EB0608101BD64608F2BE
:10030000FD3873EB050002D308F1010801E09218F3
:100310005B41B8F1000F03DA00200146BDE8F08D23
:1003200000204FF48011064684460EE0171B73EB45
:10033000050705D3121B63EB050306434CEA010CCA
:1003400049084FEA300092185B4150EA0107EDD1AD
:1003500052EA030012D082EA040083EA050108434E
:1003600005D0101BAB4106D20122002306E000227B
:100370004FF0004302E06FF0010253101AEB060049
:100380004CEB085110EB0A0041EB0B01BDE8F04DBE
:1003900000F0CEB800F0004230F000400AD0C10DAD
:1003A00001F56071C0F3160042EA0151C20840072E
:1003B0001143704700200146704701F0004330B4FC
:1003C00021F0004150EA010206D00A0DA2F5607248
:1003D000C1F31301002A02DC30BC00207047440F37
:1003E00044EAC104C100E01830BC00EBC25000F088
:1003F00068B830B50B46014600202022012409E0F0
:1004000021FA02F59D4205D303FA02F5491B04FACD
:1004100002F52844151EA2F10102F1DC30BD2DE9E0
:10042000F05F0546002092469B4688460646814678
:1004300040241BE02846414647462246FFF772FE0D
:1004400053465A46C01A914110D3114618462246C7
:1004500000F016F82D1A67EB01084F4622460120DE
:10046000002100F00DF817EB00094E41201EA4F109
:100470000104DFDC484631462A464346BDE8F09F8A
:10048000202A04DB203A00FA02F100207047914054
:10049000C2F1200320FA03F3194390407047202A49
:1004A00006DBCB17203A41FA02F043EAE07306E09C
:1004B00041FA02F3D040C2F12002914008431946AC
:1004C00070470029A8BF7047401C490008BF20F0B2
:1004D0000100704710B4B0FA80FC00FA0CF050EA4A
:1004E000010404BF10BC704749B1CCF1200421FACB
:1004F00004F411FA0CF118BF012121430843A3EBC6
:100500000C01CB1D4FEA00614FEA102042BF0020D2
:1005100010BC704700EBC35010440029A4BF10BCAE
:100520007047401C490008BF20F0010010BC704714
:1005300010B5141E73F1000408DA401C41F10001EB
:1005400092185B411A4301D120F0010010BD2DE942
:10055000F04D92469B4611B1B1FA81F202E0B0FA39
:1005600080F220329046FFF78BFF04460F4640EAA8
:100570000A0041EA0B0153465A46084313D011467C
:1005800053EA010019D0C8F140025046FFF7CAFDF6
:1005900005460E46504659464246FFF771FF08434E
:1005A00005D0012004E020463946BDE8F08D00204A
:1005B000054346EAE0762C4337430A986305E40A8C
:1005C000A0EB08000022FD0A44EA47540A3002D595
:1005D00000200146E9E7010510196941DDE90845F8
:1005E00000196941BDE8F04DA2E72DE9FE4F81EA0F
:1005F000030404F0004421F0004100944FF0000B8C
:1006000023F0004350EA01045ED052EA03045BD0B9
:10061000C3F30A54C1F30A552C44A4F2F3340194F1
:10062000A0FB0254C1F3130141F48011C3F313037F
:1006300043F4801301FB024400FB034E840A970A33
:1006400044EA815447EA8357A4FB076802958D0A60
:1006500005FB07854FEA932C04FB0C542705029DEC
:100660004FEA065847EA1637B5EB08056EEB070C5C
:10067000870E920E47EA811742EA8312A7FB020116
:10068000B6EB0B0164EB00042B0D43EA0C335E1850
:1006900044EB1C50DA465146E7FB0201C5F3130454
:1006A0004FEA0B3343EA14534FEA0432019C43EA06
:1006B0000603A4F10C040294009CCDE900B4FFF7FA
:1006C00046FF03B0BDE8F08F00200146F9E770B5A2
:1006D00021F0004303430CD0C1F30A550024D5EBAD
:1006E000040564EB0403D617AD1AB34102DB002006
:1006F000014670BD201841EB025170BD0EB5C10F0F
:1007000080EAE0700844CA07002140F233438DE8D4
:100710000E000A460B46FFF71AFF03B000BDC1F3F7
:100720000A52C1F3130140F2FF3341F480119A429F
:1007300002DA00200146704740F233439A42A2F2A7
:10074000334202DC5242FFF7EDBCFFF799BE0000D6
:1007500030B5041E71F1000404DB4FF00044404248
:1007600064EB0101141E73F1000405DB1C464FF01D
:100770000043524263EB04038B4208BF824230BD08
:1007800030B5041E71F1000404DB4FF00044404218
:1007900064EB0101141E73F1000405DB1C464FF0ED
:1007A0000043524263EB0403994208BF904230BDBC
:1007B000064C074D06E0E06840F0010394E80700AE
:1007C00098471034AC42F6D3FFF794FC702700082A
:1007D00090270008FEE77047704710B5040002D06C
:1007E000607910B106E0012010BD00202071204684
:1007F00000F004F801206071002010BD08B5006809
:100800000649884208D10648416941F040014161EA
:10081000406900F04000009008BD00000030024038
:100820000010024070B5044600F008F90546601C4F
:1008300002D004480078044400F000F9401BA042B4
:10084000FAD370BD100000202DE9F84FDFF8B89101
:10085000002409F1040A0AF1040B23460F270BF1C7
:10086000040EC9E00125A5402A40AA427DD1674E69
:10087000D1F804C0ACEB0608B44532D014DCBCF1AE
:10088000030F3AD009DCBCF1000F2AD0BCF1010FF4
:100890001CD0BCF1020F31D11DE0BCF1110F17D0FB
:1008A000BCF1120F2AD119E0B8F5881F19D006DC67
:1008B000B8F5803F15D0B8F5801F1FD111E0B8F50D
:1008C000001F0ED0B8F5041F18D10AE0CB6815E060
:1008D000CB681B1D12E0CB6808330FE0CB680C33EC
:1008E0000CE08B682BB1012B4FF0080303D045615E
:1008F00004E0042302E0056100E00023FF2A01D8A0
:10090000064601E000F104064FEA840501D9A5F18D
:100910002005D6F8008007FA05FC28EA0C0803FA3F
:1009200005F548EA0508C6F800804D68ED0062D577
:10093000374DAE6946F00106AE61AD6924F003069D
:1009400005F001050095334D06EB050CDCF8085069
:10095000A607360F07FA06F825EA0805DFF8B8807B
:10096000404503D14FF0000817E044E0DFF8AC80C9
:10097000404502D14FF001080FE0DFF8A480404568
:1009800002D14FF0020808E0DFF89880404502D11C
:100990004FF0030801E04FF0040808FA06F848EAAF
:1009A0000508CCF808804D68D9F80060ED034D4685
:1009B00001D5164300E096432E604D68DAF80060DA
:1009C000AD03554601D5164300E096432E604D68B1
:1009D000DBF80060ED025D4601D5164300E096436A
:1009E0002E604D68DEF80060AD02754601D51643F5
:1009F00000E096432E60641C0D682A46E5407FF4B3
:100A000031AFBDE8F88F0000000401400000111074
:100A1000001002400000014000080140000C0140AD
:100A200000100140001401408068084000D00120FF
:100A300070470AB1016170470904FBE7014880680B
:100A400070470000100000200248816802781144BD
:100A50008160704710000020074810B5016841F020
:100A600010010160032000F067F8002000F006F894
:100A700000F024F8002010BD0020024070B50D4D9C
:100A800004464FF47A712878B1FBF0F00A490968FE
:100A9000B1FBF0F000F0DEFA48B9102C07D20022CA
:100AA0002146501E00F028F800206C6070BD012027
:100AB00070BD0000100000201C0000200C4808B58C
:100AC000816941F001018161816901F001010091B9
:100AD000C16941F08051C161C06900F0805000904F
:100AE0000448416821F0E06141F00071416008BDB7
:100AF0000010024000000140F0B40E4B1B680C4691
:100B0000C3F30223C3F10705042D00D90425191DE1
:100B1000072901D2002300E0DB1E012606FA05F1B9
:100B2000491E214099409E40761E16403143F0BC3C
:100B300000F03CBD0CED00E0064900F0070208683B
:100B40004FF6FF03184040EA0220034A10430860B2
:100B5000704700000CED00E00000FA052DE9F047B9
:100B60000F46050061D0434E306800F00700B842E0
:100B700009D2306820F0070038433060306800F058
:100B80000700B84251D128683B4C810712D5400775
:100B900003D5606840F4E06060602878000703D502
:100BA000606840F4605060606068A96820F0F00000
:100BB000084360602878C00728D06868012810D0F2
:100BC0002168022810D0890700292EDA616821F0F7
:100BD000030101436160FFF731FF804641F288392C
:100BE0000DE021688903EFE78901EDE7FFF726FFB4
:100BF000A0EB0801494502D90320BDE8F0876068F1
:100C0000696800F00C00B0EB810FEFD1306800F0A4
:100C10000700B8420BD9306820F007003843306035
:100C2000306800F00700B84201D00120E5E72878DD
:100C3000400705D56068E96820F4E060084360601B
:100C40002878000706D56068296920F4605040EADA
:100C5000C100606000F038F86168084AC1F3031110
:100C6000515CC8400649086006480068FFF706FF67
:100C70000020C2E7002002400010024014270008B4
:100C80001C00002014000020044805490068496841
:100C9000044AC1F30221515CC84070471C00002087
:100CA00000100240242700080448054900684968EC
:100CB000044AC1F3C221515CC84070471C000020A7
:100CC000001002402427000812A185B00FC98DE84A
:100CD0000F0014A0144A006804905168134801F0F2
:100CE0000C03042B10D0082B0ED1C1F38343C9038E
:100CF0001DF803000AD5516804AAC1F34041515CB4
:100D00000A4A5043B0FBF1F005B070470849484328
:100D1000FAE7000002030405060708090A0B0C0D98
:100D20000E0F1010010200000010024000127A00A5
:100D300000093D002DE9F84F040070D02078C04D27
:100D4000C00749D06868C0F38100012807D06868EF
:100D5000C0F38100022809D16868C00306D528685D
:100D6000800339D560680028E7D035E06068B0F5C9
:100D7000803F0BD010B1B0F5A02F11D0286820F41F
:100D800080302860286820F4802002E0286840F441
:100D900080302860606890B1FFF750FE06460AE098
:100DA000286840F480202860F0E700BFFFF746FE87
:100DB000801B642873D828688003F7D50CE0FFF700
:100DC0003DFE064605E000BFFFF738FE801B6428A5
:100DD000F0D828688003F7D420789A4E80074FF027
:100DE00001094FF0000839D5686810F00C0F07D0E2
:100DF0006868C0F38100022809D16868C00306D47E
:100E00002868800714D52069012808D110E02069DE
:100E1000B0B1C6F80090FFF711FE074605E00AE101
:100E2000FFF70CFEC01B0228C4D828688007F7D53E
:100E30002868616920F0F80040EAC10028600DE0F0
:100E4000C6F80080FFF7FAFD074604E0FFF7F6FD5D
:100E5000C01B022823D828688007F7D42078000711
:100E60002CD57948A169D9B1C0F80090FFF7E6FD0B
:100E7000074604E0FFF7E2FDC01B02280FD8686AAE
:100E80008007F7D571484FF4FA510068B0FBF1F0D4
:100E9000009000BF0098411E0091FAD20EE080E061
:100EA000C0F80080FFF7CAFD074604E0FFF7C6FD63
:100EB000C01B022875D8686A8007F7D420784007DD
:100EC00060D5E8690027C00008D4E86940F0805088
:100ED000E861E869012700F0805000905C480168F3
:100EE000C90513D40168834641F480710160FFF79E
:100EF000A5FD824606E000BFFFF7A0FDA0EB0A00BB
:100F000064284ED8DBF80000C005F5D5E06801285C
:100F10000AD008B1052813D0286A20F00100286201
:100F2000286A20F0040002E0286A40F001002862EC
:100F3000E06841F2883B98B1FFF780FD82460BE004
:100F4000286A40F004002862EEE700BFFFF776FD54
:100F5000A0EB0A0159455AD8286A8007F6D50CE05B
:100F6000FFF76CFD824605E0FFF768FDA0EB0A0184
:100F700059454CD8286A8007F6D41FB1E86920F09B
:100F80008050E861E06988B36968C1F38101022992
:100F900044D00228C6F8608004D0FFF74FFD044615
:100FA00038E034E0FFF74AFD074604E0FFF746FD6E
:100FB000C01B02282BD828688001F7D4206AB0F51E
:100FC000803F05D16868A16820F40030084368605C
:100FD000D4E908010843696821F474110843686082
:100FE000C6F86090FFF72AFD044606E025E000BF42
:100FF000FFF724FD001B022809D828688001F7D5D7
:101000001BE000BFFFF71AFD001B022802D90320D6
:10101000BDE8F88F28688001F4D40EE00128F7D0ED
:101020006868226A00F48031914204D1616A00F458
:101030007010884201D00120EAE70020E8E70000B4
:101040000010024000004242800442421C00002086
:101050000070004010B5401EB0F1807F01D3012028
:1010600010BD4FF0E02460610F21601700F09EFA80
:101070000020A06107202061002010BD70B5040091
:1010800004D094F83900002510B106E0012070BDAD
:1010900084F83850204600F023F8242084F83900E2
:1010A0002068C16821F40051C160204600F0B2F907
:1010B0002068016921F4904101612068416921F0B3
:1010C0002A0141612068C16841F40051C160E563B3
:1010D000202084F8390084F83A00002070BD000018
:1010E00030B585B000240094019402940394006804
:1010F0001449884224D11448816941F480418161B6
:10110000816901F480410491816941F004018161A8
:1011100080690E4D00F0040004904FF400700090C0
:10112000022001900320039069462846FFF78CFBBC
:101130002815CDE90004694628460294FFF784FB90
:1011400005B030BD003801400010024000080140E9
:101150002DE9F843044690F839001F4616460D461F
:10116000202850D1A5B19EB194F8380001284AD06A
:10117000012084F838004FF00008C4F83C8021209A
:1011800084F83900FFF75AFCA6848146E68426E0FD
:101190000120BDE8F883E08C401EE084A0684B4647
:1011A000B0F5805F4FF000024FF0800120460097BD
:1011B00003D000F08BF9E8B90DE000F087F9C8B969
:1011C00028882168C0F308004860206908B16D1CB8
:1011D00005E0AD1C03E0216815F8010B4860E08CC8
:1011E0000028D8D14B46002240212046009700F02D
:1011F0006DF908B10320CCE7202084F8390084F889
:1012000038800020C5E70220C3E7FEE7074910B594
:10121000054808600846FFF7E0FA002803D0BDE85B
:101220001040FFF7D9BA10BD00300240080000207E
:101230002DE9F04186B000242048009401940294E6
:101240000394816941F004018161816901F0040125
:101250000491816941F0080181618069184F00F0B3
:1012600008000490002283213846FFF7E2FBDFF8F4
:101270005480002290214046FFF7DBFB83200125AC
:101280000226CDE90005CDE9024669463846FFF75A
:10129000DBFA4020CDE90004694638460294FFF7A6
:1012A000D3FA9020CDE90005CDE9024669464046D3
:1012B000FFF7CAFA06B0BDE8F08100000010024056
:1012C00000080140000C01400C4810B50A490160BB
:1012D0004FF4E1314160002181600C22C160C0E91E
:1012E00004128161C161FFF7C9FE002803D0BDE887
:1012F0001040FFF771BA10BD0038014028000020EF
:10130000FEE77047704700002DE9F041124F0025BD
:101310000024002202213846FFF78BFB641CE4B254
:101320000D2CF6D30024012202213846FFF781FB61
:10133000641CE4B20D2CF6D37006060E402138462C
:10134000FFF772FB08B146F001066D1CEDB2082DE7
:10135000DED33046BDE8F081000801407047000050
:1013600010B5802000F0E6F8054C40212046FFF73C
:101370005BFB0028F9D0BDE8104001F043B9000044
:1013800000080140FFF760BB10B590B02821684607
:10139000FEF7DFFE14210AA8FEF7DBFE0220009014
:1013A0000120049010200024059007946846FFF760
:1013B000C1FC0F20CDE90A040C940D9400210AA869
:1013C0000E94FFF7CBFB10B010BD00000D48016874
:1013D00041F00101016041680B4A11404160016820
:1013E0000A4A11400160016821F4802101604168CE
:1013F00021F4FE0141604FF41F0181600449C003E4
:1014000008607047001002400000FFF8FFFFF6FE82
:1014100008ED00E02DE9F041044600680169E2684A
:1014200021F44051114301612169A06808436169B9
:1014300008432168CA6841F20C639A430243CA60B8
:1014400020684169A26921F44071114341611E493C
:10145000206864253226884202D1FFF725FC01E08E
:10146000FFF712FC00EBC00101EB001160686FF0A8
:1014700018078000B1FBF0F2B2FBF5F2B1FBF0F31C
:101480007A4303EB8202B1FBF0F306EB0212B2FBEC
:10149000F5F2B3FBF5F302F0F00202EB0312B1FB3D
:1014A000F0F3B1FBF0F0B0FBF5F0784303EB800014
:1014B00006EB0010B0FBF5F0216800F00F001044BF
:1014C0008860BDE8F0810000003801402DE9F0415E
:1014D000984617460E460446069D1DE0681C1BD024
:1014E0002DB1FFF7ABFAA0EB0800A84214D9206891
:1014F000C16821F4D071C1602068416921F0010107
:101500004161202084F8390084F83A00002084F8F2
:1015100038000320BDE8F0812068006836EA00004A
:1015200004D00020B842D9D00020F3E70120F9E729
:10153000FEE700002DE9F041134F06460025300676
:1015400001D4002200E0012280213846FFF771FA21
:101550000024002202213846FFF76BFA641CE4B233
:101560000D2CF6D30024012202213846FFF761FA40
:10157000641CE4B20D2CF6D370066D1C060EEDB2A1
:10158000082DDCD3BDE8F081000801400FB4054B05
:1015900010B503A9044A029800F056F910BC5DF892
:1015A00014FB0000791F0008200000200907090E25
:1015B000002804DB00F1E02080F80014704700F000
:1015C0000F0000F1E02080F8141D70472DE9F04174
:1015D0004F1E00EBC7010446D1E9000115461E4627
:1015E00037F006020DD02A463346FEF7FEFF7F1E77
:1015F00004EBC703D3E90023FEF7B6FD37F006027C
:10160000F1D1022F25D0042F13D0062F18BFBDE82B
:10161000F0812A463346FEF7E8FFD4E90A23FEF7B5
:10162000A3FD2A463346FEF7E0FFD4E90823FEF780
:101630009BFD2A463346FEF7D8FFD4E90623FEF782
:1016400093FD2A463346FEF7D0FFD4E90423FEF784
:101650008BFD2A463346FEF7C8FFD4E90223FEF786
:1016600083FD2A463346FEF7C0FFD4E90023BDE8D8
:10167000F041FEF779BD00000022134610460149F3
:10168000FEF719BE0000F03F0122FFF720B800224C
:10169000134610461146FEF70EBE02E008C8121FA0
:1016A00008C1002AFAD170477047002001E001C14B
:1016B000121F002AFBD170470149086070470000E3
:1016C000240000202DE9FF5F82B00021DDE9043015
:1016D000020DDDF840B0034318D044F61050A2F2DA
:1016E000FF3242431514119801281FD0A5EB0B00BF
:1016F000401C5FEA000A4FF000064E4FDFF83891B9
:10170000B046504615D5CAF1000413E011980124E3
:101710004AA3012801D16FEA0B010298119AC0E98E
:101720000031C0E9024206B0BDE8F09FCBF10000F5
:10173000DFE704460021404A491842EB0450CDE956
:10174000001012E0E00707D032463B4640464946CB
:10175000FEF74BFF8046894632463B461046194607
:10176000FEF743FF06460F466410002CEAD1DDE980
:101770000401DDE90023BAF1000F06DAFEF735FFB8
:1017800042464B46FEF731FF05E0FEF794FD424628
:101790004B46FEF790FD04460E460022284BFEF70E
:1017A000EFFF03D84FF0FF30014607E00022254B42
:1017B00020463146FEF7D8FCFEF7B1FF102409E0C1
:1017C000002C0ADB0A220023FEF729FE039B30329D
:1017D0001A55641E50EA0102F2D1641C039AC4F146
:1017E00011031444119A012A03D0012208430DD198
:1017F0000AE0084304D000204FF0110B119072E76B
:10180000A3EB0B056D1E0DE05B4504DD4FF0000200
:1018100005F1010504E003DA4FF00002A5F101052E
:10182000002AECD002981199C0E90231C0E90045C4
:1018300079E70000000014400000F03F3000000095
:101840000000F0430000E03F2DE9FF4F95B09B46BC
:101850008946064600250FE2252877D10024274631
:10186000F84A0121059400E0044316F8013F203BAB
:1018700001FA03F01042F7D130782A2811D06FF026
:101880002F033078A0F13002092A16D8059A44F0C7
:10189000020402EB820203EB42021044761C059024
:1018A000EFE759F8042B0592002A03DA504244F47A
:1018B0000054059044F00204761C30782E2816D18E
:1018C00016F8010F44F004042A280DD06FF02F02FF
:1018D0003078A0F13003092B09D807EB870302EB1E
:1018E0004303C718761CF3E759F8047B761C30785D
:1018F0006C280FD006DC4C2817D068280DD06A2839
:1019000014D104E0742810D07A280FD10DE044F4EB
:1019100000140AE044F4801401E044F440147278A6
:10192000824202D104F58014761C761C3078662839
:101930000BD013DC582877D009DC002875D0452857
:10194000F6D04628F4D047281AD19DE118E0632844
:1019500035D0642879D0652812D195E1702873D0EC
:1019600008DC6728F1D069286FD06E280DD06F2869
:1019700006D1B5E073282CD0752875D0782874D09E
:101980005A46179990476D1C75E1C4F3025002281E
:1019900009D003280DD0D9F8001004280DD00D600F
:1019A00009F1040967E1D9F80010EA17C1E900520A
:1019B000F6E7D9F800100D80F2E70D70F0E719F89E
:1019C000041B8DF8001000208DF80100EA4601206C
:1019D00003E059F804AB4FF0FF3061074FF000010E
:1019E00002D40DE008F101018846B9420FDA8045C2
:1019F000F8DB1AF808100029F4D108E008F1010119
:101A000088468142FADB1AF808100029F6D10598B9
:101A10005B46A0EB080721463846179A00F094FA77
:101A2000284400EB080507E04DE029E10DE01AF835
:101A3000010B5A4617999047B8F10108F7D25B4657
:101A400021463846179A13E142E00A220092C4F375
:101A500002524FF0000A022A08D059F804CB032A98
:101A60004FEAEC710AD00DE029E02AE009F1070104
:101A700021F00702F2E802C1914609E00FFA8CFC5E
:101A80004FEAEC71042A03D14FFA8CFC4FEAEC7157
:101A9000002907DA0A460021DCF1000C61EB0201A3
:101AA0002D2202E0220504D52B228DF804200122EC
:101AB00003E0E20701D02022F7E7904659E00A212F
:101AC00002E010220DE010214FF0000A00910BE01F
:101AD00010224FF0000A44F004040827009203E0AB
:101AE00008224FF0000A0092C4F30252022A05D0E5
:101AF00059F804CB0021032A08D009E009F10701B5
:101B000021F00702F2E802C1914605E01FFA8CFCC1
:101B1000042A01D10CF0FF0C4FF00008220728D551
:101B2000702806D0009B83F0100353EA0A0305D007
:101B30000EE040228DF80420012208E05CEA010258
:101B400006D030228DF804208DF805000222904640
:101B5000009B83F0080353EA0A030AD15CEA0102FE
:101B600001D1620705D530228DF804204FF001081D
:101B70007F1E582804D034A003900EA802900DE0D8
:101B800036A0F9E753466046009AFEF748FC8446C3
:101B90000398825C0298401E029002705CEA010089
:101BA000F0D1029806A9081A00F1200A600702D5B0
:101BB00024F4803400E00127574502DDA7EB0A003A
:101BC00000E0002000EB0A01009005984144401A13
:101BD0000590E00306D45B462146179A059800F06D
:101BE000B3F90544002706E001A85A46C05D1799DD
:101BF00090476D1C7F1C4745F6DBE0030CD55B4628
:101C00002146179A059800F09FF9054404E030201A
:101C10005A46179990476D1C0099481E009000295C
:101C2000F5DC08E0029802995A460078491C0291B6
:101C3000179990476D1CBAF10001AAF1010AF1DC75
:101C400065E1000009280100303132333435363780
:101C500038396162636465660000000030313233F8
:101C60003435363738394142434445460000000098
:101C700000F058F90544761C307800287FF4ECAD6C
:101C800019B02846BDE8F08F620700D4062709F195
:101C9000070222F0070CFCE80223E14603F00048AB
:101CA0005FEA080C02D00FF2702C0DE05FEA045CD2
:101CB00002D50FF2682C07E05FEAC47C02D00FF275
:101CC000602C01E0AFF2700C4FF0FF3823F00043BE
:101CD000CDF850C065280CD006DC452809D0462830
:101CE0001DD047283DD13DE0662818D067287ED119
:101CF00038E00021112F01DB112000E0781CCDE934
:101D0000000106A90EA8FFF7DDFCDDE90F010E9A20
:101D100003910021009207F1010A04914DE04FF078
:101D200000400097CDE9011006A90EA8FFF7CAFCF4
:101D3000DDE90F0203920E9B11990022DDF80CA041
:101D40000093049211B9791C00EB010AB7EB0A0069
:101D500004D4C0F1FF3007F1010A0490AAEB070098
:101D6000019044E0012F00DA01270021112F01DD4D
:101D7000112000E03846CDE9000106A90EA8FFF7C2
:101D8000A1FCDDE90F010E9A03910021049100925C
:101D9000BA4621070CD40399514500DA8A46BAF1B4
:101DA000010F05DD009AAAF10101515C302908D02C
:101DB000B84202DA10F1040F06DA0121CDE9011070
:101DC00015E0AAF10101E9E7002805DC04990144C6
:101DD0000491AAEB000102E0411C514500DD8A4656
:101DE0000499401A401C01904FF0004002902007D7
:101DF00004D40198504501DBCDF8048000208DF813
:101E00004F0002980DF14F07B0F1004F25D02B2065
:101E10000E9002984FF0020800280CDA404202901F
:101E20002D200E9007E00A210298FEF7E2FA3031E9
:101E3000029007F8011DB8F10001A8F10108F2DCD9
:101E400002980028EFD1791E0E980870307800F0C3
:101E5000200040F0450007F8020D12A8C01B00F159
:101E600007081498007800B1012000EB0A010198DE
:101E700001EBE07105984144401A401E0590E003D3
:101E800006D45B462146179A059800F05DF8054494
:101E90001498007818B15A46179990476D1CE003C2
:101EA00024D55B462146179A059800F04DF8054465
:101EB0001CE00498002807DBDDE90301884203DD0C
:101EC0000098405C179901E0179930205A469047D6
:101ED000049805F10105401C04900198401E0190F2
:101EE00004D12E205A46179990476D1CBAF1000173
:101EF000AAF1010ADDDC05E017F8010B5A46179933
:101F000090476D1CB8F10001A8F10108F4DC5B46B4
:101F10002146179A0598ABE62D0000002B00000023
:101F2000200000002DE9F041044600251E4617461A
:101F3000880404D405E039462020B0476D1C641E97
:101F4000F9D52846BDE8F0812DE9F0410446002589
:101F50001E469046C80301D5302700E0202788049C
:101F600004D505E041463846B0476D1C641EF9D5DE
:101F70002846BDE8F081000013B54FF47A730122C2
:101F800069460248FFF7E4F801201CBD2800002044
:101F900070B5994D002440F2FF76012202212846B7
:101FA000FEF747FD002202212846FEF742FD641C91
:101FB000B442F2D3012280212846FEF73AFD0024E4
:101FC000012202212846FEF734FD00220221284684
:101FD000FEF72FFD641CFE2CF2D3002280212C463C
:101FE0002846FEF726FD012202212046FEF721FDAC
:101FF000002202212046FEF71CFDFF20FFF79AFA7F
:10200000FE20FFF797FA0320FFF794FA0720FFF767
:1020100091FA3020FFF78EFA4020FFF78BFA4FF449
:10202000FA663046FEF7FEFB744D0B20FFF782FA8E
:102030003046FEF7F7FBFFF767F92870FFF764F902
:102040006870FFF761F9A87003466A7829786CA078
:10205000FFF79CFAA8784006E7D50320FFF76AFA55
:102060000720FFF767FA3020FFF764FA4020FFF7F8
:1020700061FA3046FEF7D6FB0B20FFF75BFA3046DD
:10208000FEF7D0FBFFF740F92870FFF73DF96870C5
:10209000FFF73AF9A87003466A7829785EA0FFF73F
:1020A00075FA0520FFF746FA0020FFF743FAA02053
:1020B000FFF740FA8320FFF73DFA1020FFF73AFAC6
:1020C0001120FFF737FA8120FFF734FA8120FFF75C
:1020D00031FA40212046FEF7A7FC0028F9D18920DB
:1020E000FFF728FA40212046FEF79EFC0028F9D190
:1020F0009120FFF71FFA40212046FEF795FC0028AB
:10210000F9D19920FFF716FA40212046FEF78CFC02
:102110000028F9D1A120FFF70DFA40212046FEF753
:1021200083FC0028F9D1A920FFF704FA40212046BA
:10213000FEF77AFC0028F9D1B120FFF7FBF9402126
:102140002046FEF771FC0028F9D1B920FFF7F2F91B
:1021500040212046FEF768FC0028F9D18220FFF7D5
:10216000E9F940212046FEF75FFC0028F9D18A20DA
:10217000FFF7E0F940212046FEF756FC0028F9D190
:102180009220FFF7D7F940212046FEF74DFC0028AA
:10219000F9D19A20FFF7CEF940212046FEF744FC02
:1021A0000028F9D1A220FFF7C5F940212046FEF70B
:1021B0003BFC0028F9D1AA20FFF7BCF940212046BA
:1021C000FEF732FC0028F9D1B220FFF7B3F9402125
:1021D0002046FEF729FC0028F9D1BA20FFF7AAF91A
:1021E00040212046FEF720FC0028F9D1BDE87040D0
:1021F0000EA0FFF7CBB9000000080140000000204E
:1022000031404040404040406363633A257820209D
:102210002578202025780A00636F6E6669673A2565
:102220007820202578202025780A0000696E6974BE
:102230004353202066696E6973680A002DE9F04DEA
:10224000C84A002490B0914205DA21F0004393423D
:1022500001D805D120B110B0BDE8F04DFFF714BA98
:10226000B1F5801F1BDA53EA000209D0002911DA08
:102270000120FFF721FA10B0BDE8F04DFFF707BAD3
:102280000220FFF719FAFFF7F7F910B081F00041CB
:10229000BDE8F08D6FF035043622FEF718FA04EB36
:1022A0002152C1F31308B049A2F2FF33414401F4B3
:1022B000801282F07F6103EB225281F04051009244
:1022C00041EA08010022A94BFDF7EFFF044608F19F
:1022D0000200A74EC0F313000D467E44032867D2C8
:1022E000D6E900232046FEF733FA1ED100980028D5
:1022F00002BFD6E9000110B0BDE8F08DFEF7FEF98F
:1023000007460C469B4A9C4BFEF76FF906460D4666
:102310009A4A9B4B38462146FEF767F910B0324681
:102320002B46BDE8F04DFDF71FBF4FF05532954BE2
:1023300020462946FEF759F90022934BFDF7B8FFD6
:1023400006460F4622462B4610461946FEF74DF923
:1023500032463B46FEF749F9064600980F46F0B173
:10236000FEF7CCF980468A46824A834BFEF73DF958
:1023700032463B46FDF79CFF22462B46FDF795FF74
:1023800005460C467D4A7E4B40465146FEF72DF9E8
:1023900010B02A462346BDE8F04DFDF786BF0B4638
:1023A00010B0324620462946BDE8F04DFDF77DBF0E
:1023B00000224FF080432046FDF7D6FE02460B4632
:1023C00020462946FDF777FF06460F460098FEF7A0
:1023D00095F9CDE9040132463B4610463946FEF7F1
:1023E00004F90C9069480C9A4044019009910B46FD
:1023F0001046FEF7FAF88246024665488B46C8F159
:1024000051080B4608F5D72803217844FFF7DEF87A
:1024100052465B46FEF7E9F80A905E480D91524637
:102420005B4604217844FFF7D1F8099B0C9AFEF72C
:10243000DCF8844601980D9B40EA080860460A9A39
:10244000FDF792FE83460891B8F1000F4EDD4FF084
:10245000FF3220462946FEF73AF922462B46FEF780
:10246000C4F8804600988A4660B3DDE90401414A19
:10247000414BFEF7BAF8099100905A464046514642
:10248000089BFDF771FE32463B46FEF7AEF8099B0E
:10249000009AFDF769FE42465346FDF709FF2246C2
:1024A0002B46FDF702FF04460D46DDE90401334AE1
:1024B000334BFEF79AF810B022462B46BDE8F04D9C
:1024C000FDF7F3BE5A464046089BFDF74DFE3246E7
:1024D0003B46FEF78AF842465346FDF7E9FE10B048
:1024E00022462B46BDE8F04DFDF7E2BE009840B312
:1024F000DDE904011F4A204BFEF777F880468A4643
:102500005A4620462946089BFDF7CFFE32463B46F9
:10251000FEF76BF842465346FDF7C7FE22462B46B0
:10252000FDF7C3FE04460D46DDE90401134A144BD2
:10253000FEF75BF810B022462B46BDE8F04DFDF7E4
:10254000B4BE0B465A4620462946FDF7AEFE32463B
:102550003B46FEF74AF810B022462B46BDE8F04D48
:10256000FDF7A6BE0000F07F645F09000000F03FA9
:102570008A040000763C7935EF39EA3D0000E0FE40
:10258000422EE63F5555D53F0000E03F86EBF9FF70
:102590002203000020030000FEF75EFAFEF7F4FEBF
:1025A000FEF746FEFEF790FEFEF730FE4FF4FA60AF
:1025B000FEF738F9012210210A48FEF73AFA002204
:1025C00001210948FEF735FAFFF7E2FC4FF47A746F
:1025D000FEF7C6FE2046FEF725F904A0FEF7D6FF5B
:1025E000F6E70000000C01400008014077616974C3
:1025F0002077616974202077616974202E2E2E0D5A
:102600000A000000F8B5FF20FEF794FFFEF77CFEFD
:102610000446FEF779FE00EB0424FEF775FEFEF794
:1026200073FE0546FEF770FE00EB0525FEF76CFE17
:10263000FEF76AFE0646FEF767FE00EB0626FEF78B
:1026400063FEFEF761FE0746FEF75EFE00EB07271E
:10265000FEF75AFE084800F02BF8FDF79BFE0246F5
:102660000B4606A0FEF792FF33462A46214607A0F6
:102670000097FEF78BFFF8BD00007A4440404040D1
:102680004040404040403A25660A00003D3D3D3D07
:102690003D3D3D3120205B25645D20205B25645D50
:1026A00020205B25645D20205B25645D0A0000001E
:1026B00010B500201049FFF7C1FD00220F4BFDF7B8
:1026C000FAFD02460B464FF060400D49FDF74CFD08
:1026D00002460B4600200B49FDF7EDFD4FF0C042CE
:1026E000094BFDF7E2FD0022084BFDF73DFDFDF72C
:1026F00064FE0749486010BD0000F07F00DCAE407A
:10270000E1796B3F0000F03F661271400000E03F4E
:10271000000000200000000000000000010203048F
:102720000607080900000000010203040000000081
:1027300004FA97999999D93FAF788E1DC571CC3F0E
:102740009FC678D0099AC33F935555555555E53FD7
:10275000599322942449D23FDE03CB966446C73F67
:1027600044523EDF12F1C23F0000000000000000B2
:102770009027000800000020280000009A1600089A
:10278000B82700082800002040040000AA1600080E
:102790000000000000000000000000000000000039
:1027A0000100000010000000000000000024F40000
:0827B000000000000000000021
:04000005080000ED02
:00000001FF
