:020000040800F2
:100000003004002001010008B3020008AB02000820
:10001000AF02000875010008D307000800000000C7
:100020000000000000000000000000003104000893
:1000300079010008000000003903000845050008A8
:100040001B0100081B0100081B0100081B01000820
:100050001B0100081B0100081B0100081B01000810
:100060001B0100081B0100081B0100081B01000800
:100070001B0100081B0100081B0100081B010008F0
:100080001B0100081B0100081B0100081B010008E0
:100090001B0100081B0100081B0100081B010008D0
:1000A0001B0100081B0100081B0100081B010008C0
:1000B0001B0100081B0100081B0100081B010008B0
:1000C0001B0100081B0100081B0100081B010008A0
:1000D0001B010008A90500081B0100081B010008FE
:1000E0001B0100081B0100081B010008DFF80CD0F1
:1000F00000F02EF8004800471D0C000830040020D6
:100100000648804706480047FEE7FEE7FEE7FEE7B1
:10011000FEE7FEE7FEE7FEE7FEE7FEE7490500082B
:10012000ED00000830B50B460146002020220124D6
:1001300009E021FA02F59D4205D303FA02F5491BB5
:1001400004FA02F52844151EA2F10102F1DC30BDCB
:10015000064C074D06E0E06840F0010394E8070014
:1001600098471034AC42F6D3FFF7C4FFD40C000814
:10017000F40C000800BFFEE770472DE9F04102468D
:1001800000250026002000230024002791F803C04A
:100190000CF00F0591F803C00CF0100CBCF1000F2F
:1001A00003D091F802C04CEA050591F800C0BCF1FB
:1001B000000F31D0146800202BE04FF0010C0CFA36
:1001C00000F3B1F800C00CEA03069E4220D1830080
:1001D0004FF00F0C0CFA03F7BC4305FA03FC4CEA92
:1001E000040491F803C0BCF1280F06D14FF0010CB4
:1001F0000CFA00FCC2F814C00AE091F803C0BCF18C
:10020000480F05D14FF0010C0CFA00FCC2F810C0E9
:10021000401C0828D1D31460B1F800C0BCF1FF0F16
:1002200034DD546800202EE000F1080C4FF0010886
:1002300008FA0CF3B1F800C00CEA03069E4221D183
:1002400083004FF00F0C0CFA03F7BC4305FA03FCD4
:100250004CEA040491F803C0BCF1280F05D100F169
:10026000080C08FA0CF8C2F8148091F803C0BCF12D
:10027000480F07D100F1080C4FF0010808FA0CF8FC
:10028000C2F81080401C0828CED35460BDE8F0812D
:100290000246002093680B400BB1012000E00020D3
:1002A0007047416170470161704700BFFEE700BFC2
:1002B000FEE7704770B5002100230F22C47804B315
:1002C000154C246804F4E064C4F5E064210AC1F12B
:1002D0000403CA40447804FA03F1847814402143AB
:1002E00009010E4C0678A155047804F01F0501247D
:1002F000AC4005786D11AD0005F1E025C5F8004171
:1003000009E0047804F01F050124AC40044D067890
:10031000761145F8264070BD0CED00E000E400E0E9
:1003200080E100E002490143024A11607047000089
:100330000000FA050CED00E07047000029B1064A04
:1003400092690243044B9A6104E0034A9269824332
:10035000014B9A61704700000010024030B5002147
:100360000022002400232D4D6D6805F00C0121B101
:10037000042905D0082923D105E0294D056022E094
:10038000274D05601FE0254D6D6805F47012234D63
:100390006D6805F48034022505EB92421CB9214DAD
:1003A000554305600BE01D4D6D6805F400351DB12A
:1003B0001C4D5543056002E0194D5543056002E0B0
:1003C000174D056000BF00BF144D6D6805F0F001CA
:1003D0000909154D6B5C0568DD4045600F4D6D6882
:1003E00005F4E061090A104D6B5C4568DD408560ED
:1003F0000A4D6D6805F46051C90A0B4D6B5C456888
:10040000DD40C560054D6D6805F44041890B074D21
:100410006B5CC568B5FBF3F5056130BD00100240AB
:1004200000127A0000093D00140000202400002082
:10043000704710B500F002F810BD00000CB50020A8
:10044000019000903348006840F4803031490860E2
:1004500000BF3048006800F4003000900198401C54
:100460000190009818B90198B0F5A06FF1D1294812
:10047000006800F4003010B10120009001E000207D
:1004800000900098012843D12348006840F01000F4
:10049000214908600846006820F00300086008460B
:1004A000006840F0020008601A4840681949486036
:1004B0000846406848600846406840F480604860EC
:1004C0000846406820F47C1048600846406840F4C4
:1004D000E81048600846006840F08070086000BF7F
:1004E0000C48006800F000700028F9D00948406806
:1004F00020F00300074948600846406840F00200C9
:10050000486000BF0348406800F00C000828F9D19B
:100510000CBD00000010024000200240042808D159
:100520004FF0E021096941F004014FF0E022116130
:1005300007E04FF0E021096921F004014FF0E022CB
:10054000116170477047000010B51348006840F013
:1005500001001149086008464068104908400E49EA
:100560004860084600680E4908400B490860084684
:10057000006820F4802008600846406820F4FE00EF
:1005800048604FF41F008860FFF753FF4FF0006092
:100590000449086010BD0000001002400000FFF890
:1005A000FFFFF6FE08ED00E010B540F225510B48C4
:1005B00000F03EF860B1094800F0F6F8C4B22146F8
:1005C000064800F0F6F840F22551044800F008F81B
:1005D0004FF45871014800F003F810BD0038014095
:1005E00010B50022002340F66A14A14200D100BFDA
:1005F0000A1201249440A3B2DC43048010BD21B14F
:10060000828942F40052828104E082894DF6FF73B0
:100610001A408281704702460020B1F5007F00D168
:1006200000BF13880B400BB1012000E00020704791
:1006300070B50246002400230025002040F66A160B
:10064000B14200D100BFC1F3421501F01F030126E2
:1006500006FA03F3012D02D19689334006E0022DFC
:1006600002D1168A334001E0968A33400C120126EB
:1006700006FA04F41688344013B10CB1012000E0EE
:10068000002070BDF0B503460024002600250020A0
:1006900040F66A17B94200D100BF1846C1F34214B0
:1006A00001F01F06012707FA06F5012C01D10C30D5
:1006B00004E0022C01D1103000E014301AB10768B8
:1006C0002F43076002E00768AF430760F0BD0000FA
:1006D0002DE9F04786B005460E460024A24600BF2D
:1006E000A1460027B08900B100BF2F462C8A4CF6E6
:1006F000FF700440F08804432C82AC894EF6F3105E
:100700000440B08831890843718908430443AC81AF
:10071000AC8A4FF6FF400440B0890443AC8201A884
:10072000FFF71CFE1F48874202D1DDF810A001E050
:10073000DDF80CA0A88900F4004040B10AEBCA0023
:1007400000EB0A1031684900B0FBF1F807E00AEB52
:10075000CA0000EB0A1031688900B0FBF1F8642090
:10076000B8FBF0F004012009642101FB1089A8897D
:1007700000F4004040B1322000EBC900B0FBF1F0C2
:1007800000F00700044308E0322000EB0910642168
:10079000B0FBF1F000F00F0004432C8106B0BDE87F
:1007A000F08700000038014001468888C0F3080047
:1007B0007047C1F30802828070474FF41651016000
:1007C00000218180C18001810C2141810021818132
:1007D000704700BFFEE700000FB4054B10B503A93A
:1007E000044A029800F018F810BC5DF814FB0000F1
:1007F000F90B00082C00002002E008C8121F08C1F5
:10080000002AFAD170477047002001E001C1121F91
:10081000002AFBD1704700002DE9FF4F89B09B46AD
:100820000446002506E025280BD05A460B99904730
:10083000641C6D1C20780028F5D10DB02846BDE859
:10084000F08F0027B8460122474900E0074314F81B
:10085000013F203B02FA03F00842F7D120782E280E
:1008600019D114F8010F47F004072A280ED06FF0B1
:100870002F022078A0F1300109290CD808EB88015B
:1008800002EB410100EB0108641CF2E70A98641CCA
:1008900050F8048B0A9020780028CED0642808D025
:1008A000692806D075281ED05A460B9990476D1CB2
:1008B00058E00A994FF00A0901C90A91002802DAA2
:1008C00040422D2102E0390504D52B218DF820105E
:1008D000012103E0F90704D02021F7E78A4608AE9A
:1008E0000DE00021FAE70A994FF00A0901C90A91BF
:1008F000F7E74946FFF716FC303106F8011D0028DE
:10090000F7D1ADEB060000F12009780701D44FF0D4
:100910000108C84502DDA8EB090000E00020804680
:10092000002706E008A85A46C05D0B9990476D1C49
:100930007F1C5745F6DB04E030205A460B99904760
:100940006D1CB8F10001A8F10108F5DC05E016F80E
:10095000010B5A460B9990476D1CB9F10001A9F1A2
:100960000109F4DC641C65E70928010010B56FF08B
:100970000400FFF7D3FD0A4800680A49B0FBF1F014
:10098000094908700846007800EB4001C1EBC0102F
:100990004FF6FF7101EAC0000449088010BD000055
:1009A0000000002000127A00280000202A00002009
:1009B0000146114A12884A434FF0E0235A6100224F
:1009C0009A611A46126942F001021A6100BF4FF0A3
:1009D000E022106900F001021AB100F48032002A0E
:1009E000F5D04FF0E022126922F001024FF0E0232F
:1009F0001A6100229A6170472A0000200146114ABC
:100A000012784A434FF0E0235A6100229A611A4655
:100A1000126942F001021A6100BF4FF0E022106932
:100A200000F001021AB100F48032002AF5D04FF034
:100A3000E022126922F001024FF0E0231A61002245
:100A40009A617047280000202DE9F84300F0C0F8B3
:100A500000F06EF880211F48FFF71AFC002836D1FD
:100A600000BF80211B48FFF713FC0028F9D000BF0E
:100A700080211848FFF70CFC0128F9D000F084F819
:100A8000C4B200F081F8C5B200F07EF8C6B200F042
:100A90007BF8C7B200F078F800F0FF0800F05EF8CD
:100AA00080210C48FFF7FFFB601930443844404573
:100AB0000AD109A0FFF790FE33462A4621460FA02F
:100AC0000097FFF789FE02E013A0FFF785FEBDE85F
:100AD000F883000000080140636865636B2073754C
:100AE00063636573736564202E2E2E2E2E2072692B
:100AF00067687420646174610A000000CEC2B6C8E1
:100B0000A3BA25642E25642020CAAAB6C8A3BA2594
:100B1000642E25640A000000636865636B206661CB
:100B2000696C65642E2E2E2E2E2E2E0A00000000DB
:100B300008B501210420FFF701FC8020ADF800007A
:100B400003208DF8020028208DF803006946024832
:100B5000FFF713FB08BD00000008014008B50121A4
:100B60000420FFF7EBFB8020ADF8000003208DF898
:100B7000020010208DF8030069460248FFF7FDFAD5
:100B800008BD00000008014070B50024002519E0F0
:100B90006006040E002600BF80210C48FFF778FB9A
:100BA0000028F9D003E00120FFF728FF761C802100
:100BB0000648FFF76DFB0128F5D0142E01DD44F047
:100BC00001046D1C082DE3DB204670BD00080140C8
:100BD00010B5FFF7C3FF80210648FFF762FB132023
:100BE000FFF7E6FE80210348FFF75DFB1920FFF7C2
:100BF00005FF10BD0008014070B504460D46E1B286
:100C00000548FFF7D6FD00BF40210348FFF703FD6D
:100C10000028F9D0204670BD0038014000F00AF8E5
:100C2000FFF7A4FE05E0FFF70FFF4FF4FA60FFF7B0
:100C3000BFFEF8E700B587B0012144F20500FFF7D9
:100C40007DFB4FF40070ADF8180003208DF81A00FA
:100C500018208DF81B0006A91C48FFF78EFA4FF4E8
:100C60008060ADF8180003208DF81A0004208DF87C
:100C70001B0006A91548FFF780FA02A8FFF79DFDA3
:100C80004FF4E130029002A91148FFF721FD012144
:100C90000F48FFF7B4FC012240F225510C48FFF742
:100CA000F1FC4FF4E060FFF73DFB25208DF80400D8
:100CB00001208DF8070000208DF8050002208DF836
:100CC000060001A8FFF7F6FA07B000BD00080140D2
:100CD00000380140F40C0008000000203000000043
:100CE000F8070008240D0008300000200004000070
:100CF0000808000800A24A040000000000000000EC
:100D000001020304060708090000000001020304B1
:100D10000102030406070809020406080000000097
:040D200000000000CF
:04000005080000ED02
:00000001FF
